:020000040800F2
:1000000000000220B9020008BF020008C302000875
:1000100035030008390300088103000800000000D0
:10002000000000000000000000000000C9030008FC
:10003000CD03000800000000D1030008D50300082C
:10004000E5030008E5030008E5030008E5030008F0
:10005000E5030008E5030008E5030008E5030008E0
:10006000E5030008E5030008E5030008E5030008D0
:10007000E5030008E5030008E5030008E5030008C0
:10008000E5030008E5030008E5030008E5030008B0
:10009000E5030008E5030008E5030008E5030008A0
:1000A000E5030008E5030008E5030008E503000890
:1000B000E5030008E5030008E5030008E503000880
:1000C000E5030008E5030008E5030008E503000870
:1000D000E5030008E5030008E5030008E503000860
:1000E000E5030008E5030008E5030008E503000850
:1000F000E5030008E5030008E5030008E503000840
:10010000E5030008E5030008E5030008E50300082F
:10011000E5030008E5030008E5030008E50300081F
:10012000E5030008E5030008E5030008E50300080F
:10013000E5030008E5030008E5030008E5030008FF
:10014000E5030008E5030008E5030008E5030008EF
:10015000E5030008E5030008E5030008E5030008DF
:10016000E5030008E5030008E5030008E5030008CF
:10017000E5030008E5030008E503000800000000AF
:10018000E5030008E503000800B583B000F014FCA7
:10019000384B394A1360394A1360394906E052F83E
:1001A000041B43F8041B9842F9D86146354B994229
:1001B00005D20A684B6801F10C0C8868F3E72E4BF6
:1001C0001A68314B9A4200D0FEE72C4B1A682F4B2D
:1001D0009A42F9D1274B2E4A13602E4A13602E4AB9
:1001E00000E002462D4B9A4209D2104650F8083BD7
:1001F00051689942F5D9002243F8042BF9E7244BC2
:100200001B6813B9234B1B6803B1FEE700F0E0FB4A
:10021000694601A800F0DEFA214C224BE41AA41032
:10022000002504E01F4B53F8253098470135AC42B8
:10023000F8DC1D4C1D4BE41AA410002504E01B4BF8
:1002400053F8253098470135AC42F8DC0099019805
:1002500000F064FC0546164C164BE41AA41004E0AA
:10026000013C144B53F824309847002CF8DC284606
:1002700000F082FABABADECA000000207400002042
:10028000E8030008000400087856341232547698C7
:100290007800002014010020000400081004000869
:1002A00010040008100400081004000810040008DE
:1002B000100400081004000808B5FFF765FF00BE31
:1002C000FEE71EF0040F0CBFEFF30880EFF3098088
:1002D0007146414A10472DE9F04182B004460D466F
:1002E000124B5F6BD3F838809E6A1B6B13F0020FC2
:1002F00003D00E4BDB6A002B0BDB0D4800F0A8FA95
:10030000009543463A463146204600F0CBFA00BEFF
:10031000FEE74BF6AB6100F03FFB0028EDD0034B4E
:100320004FF00042DA6202B0BDE8F08100ED00E07B
:100330006417000800BEFEE71EF0040F0CBFEFF3C9
:100340000880EFF309807146244A10472DE9F041F7
:1003500082B004460D46084B5F6BD3F838809E6A26
:10036000064800F075FA009543463A463146204665
:1003700000F098FA00BEFEE700ED00E074170008F8
:100380001EF0040F0CBFEFF30880EFF309807146F5
:10039000134A10472DE9F04182B004460D46084B40
:1003A0005F6BD3F838809E6A064800F051FA0095DA
:1003B00043463A463146204600F074FA00BEFEE756
:1003C00000ED00E08017000800BEFEE700BEFEE77B
:1003D00000BEFEE770470000D70200084D0300088A
:0803E0009503000800BEFEE7D2
:1003E800D41700080000002078000020D417000867
:1003F8000000001000000010780000201801002004
:080408000000001000000010CC
:100410002DE9F04383B007460E46374B984223D070
:1004200003F5806398421FD003F5806398421BD088
:1004300003F58063984217D003F58063984213D088
:1004400003F5806398420FD003F5806398420BD088
:1004500003F58063984207D003F58063984203D088
:10046000B321264800F07EF933689AB212B11B0C12
:100470001B041BB1B421214800F074F97368012BEF
:100480001ED9112B1CD0022B1AD0122B18D01C4AAB
:10049000934215D002F58012934211D002F58012DA
:1004A00093420DD0A2F5F812934209D002F58012C2
:1004B000934205D002F58012934201D0032B04D160
:1004C000B368022B06D8002452E0B5210B4800F097
:1004D00049F9F5E7B621094800F044F9F3E7C821E6
:1004E000064800F03FF959E0E021044800F03AF9ED
:1004F00097E0072307E000BF00000240D81500087E
:100500000000111000238B4003430232794941F867
:100510002230794B1A686FEA080322EA08017068F2
:1005200010F4803F01D048EA0201734A116052681A
:1005300003EA0201706810F4003F01D048EA0201AA
:100540006D4A5160926803EA0201706810F4801FDE
:1005500001D048EA0201684A9160D268134071688C
:1005600011F4001F01D048EA0203634AD36001344A
:100570000F2C00F2BB800125A540336803EA050873
:1005800035EA0303F3D173685A1E012A03D9112BEC
:1005900001D0122B15D1F368032BA0D8BA686100E3
:1005A00003238B4022EA0302F3688B401343BB60B2
:1005B0007A6822EA05027368C3F30015A540154363
:1005C0007D60FA6865000323AB406FEA030922EA05
:1005D0000302B368AB401343FB607368022B01D086
:1005E000122B2ED13369E3B1092B1AD0012B18D06D
:1005F000022B16D0032B14D0042B12D0052B10D0B5
:10060000062B0ED0072B0CD0082B0AD00A2B08D0B3
:100610000B2B06D00C2B04D00D2B02D00F2B7FF40C
:1006200063AFE208083257F8220004F0070399008C
:100630000F238B4020EA030033698B40034347F8C4
:1006400022303B6809EA0309736803F00303AB40F7
:1006500043EA09033B60736813F0805F87D000238F
:100660000193264B5A6C42F480425A645B6C03F44B
:1006700080430193019BA208911C1E4B53F821005B
:1006800004F0030399000F238B4020EA03001C4B66
:100690009F423FF437AF03F580639F421AD003F5C2
:1006A00080639F4218D003F580639F4216D003F504
:1006B00080639F4214D003F580639F4212D003F5FC
:1006C00080639F4210D003F580639F423FF411AFD7
:1006D000082318E7012316E7022314E7032312E790
:1006E000042310E705230EE706230CE703B0BDE85B
:1006F000F08300BF00380140003C01400038024058
:100700000000024038B504460D4621B123691D4260
:1007100007D0012038BD4FF4BF71034800F022F824
:10072000F4E70020F6E700BFD815000870B50546CD
:1007300014460E4621B1012C08D86CB1AE6170BDD3
:1007400040F29F11064800F00DF8F4E74FF4D07125
:10075000034800F007F8F0E73604AE61EFE700BFAA
:10076000D815000808B50A460146024800F070F89E
:1007700000F004F808160008FEE7000008B503487A
:1007800000F080F80120FFF7F7FF00BF34160008E3
:1007900008B503460C4A12685AB10B4A1068033375
:1007A00023F003030344094A934206D8064A136020
:1007B00008BD054A06491160EFE700F029FA0C234D
:1007C00003604FF0FF30F3E77C00002000FC0120C5
:1007D0001801002001230360014B0B60704700BF2C
:1007E000040000202DE9F04385B004460F4643562F
:1007F0003BBB042528462146ABBE0446384605B01F
:10080000BDE8F08314F901CB03F110026A4402F849
:1008100010CC0133AB42F5D310336B44002203F804
:10082000102C4FF00408E94640464946ABBE8046CE
:10083000761B002EE2D03546102E28BF102500234F
:10084000E8E70E46F5E708B5FFF7CCFF08BD000066
:100850000FB400B583B004AB53F8042B019380218F
:10086000074800F00FFA002804DC03B05DF804EB41
:1008700004B0704701460248FFF7E5FFF5E700BF07
:100880008800002010B5044600F0C8F90146204653
:10089000FFF7D9FF01210248FFF7D5FF10BD00BFC8
:1008A000E0160008F8B504460D4617461E462748D0
:1008B000FFF7CEFF21682648FFF7CAFF6168254889
:1008C000FFF7C6FFA1682448FFF7C2FFE16823488D
:1008D000FFF7BEFF21692248FFF7BAFF616921488F
:1008E000FFF7B6FFA1692048FFF7B2FFE1691F4893
:1008F000FFF7AEFF1E48FFF7ABFF29461D48FFF785
:10090000A7FF1D4CE16A1D48FFF7A2FF216B1C48A1
:10091000FFF79EFFE16B1B48FFF79AFF15F0800F72
:100920000AD115F4004F0CD11748FFF791FF069933
:100930001648FFF78DFFF8BD39461548FFF788FFC9
:10094000EFE731461348FFF783FFEDE7481600084D
:10095000581600086816000878160008881600085F
:1009600098160008A8160008B8160008C81600084F
:10097000D8160008E416000800ED00E0F4160008A0
:100980000417000814170008441700084C17000843
:10099000241700083417000883691A888A4201D096
:1009A000002070470268033A012A01D900207047ED
:1009B000023383610120704708B500F00DF8024A48
:1009C000024B9A6008BD00BF0000000800ED00E087
:1009D00008B500F009F808BD024B4FF000629A60BC
:1009E000704700BF00ED00E0224B9B6803F00C0352
:1009F000042B14D0082B16D01BB11F4B1F4A1A60B2
:100A000002E01D4B1D4A1A601A4B9B68C3F3031387
:100A10001B4AD15C184A1368CB4013607047164BD1
:100A2000184A1A60F0E7134B59685A6802F03F02FF
:100A300011F4800F13D0134BB3FBF2F30D4A52683D
:100A4000C2F3881202FB03F30A4A5268C2F301425E
:100A500001325200B3FBF2F3074A1360D4E7074BAD
:100A6000B3FBF2F3034A5268C2F3881202FB03F3AA
:100A7000EAE700BF003802400C0000200024F40028
:100A80009017000800127A0000B587B00023009389
:100A90000A4B1A6B42F008021A631B6B03F008033F
:100AA0000093009B012302934FF47043019301A92B
:100AB0000348FFF7ADFC07B05DF804FB00380240C7
:100AC000000C024000B587B0002300930A4A116B66
:100AD00041F001011163126B02F001020092009AD1
:100AE000029301220192039301A90448FFF790FCAD
:100AF00007B05DF804FB00BF003802400000024070
:100B000082B00190002200E00132019B4FF47A6133
:100B100001FB03F39342F7DC02B0704738B5FFF7EF
:100B2000B3FFFFF7CFFF4FE0374D01224FF43041C5
:100B30002846FFF7FBFD4FF4FA70FFF7E1FF0022B4
:100B40004FF430412846FFF7F1FD4FF4FA70FFF7FC
:100B5000D7FF01340A2CE7DD4FF47A60FFF7D0FFAE
:100B60000024182C14DC284D01224FF43041284673
:100B7000FFF7DCFD7D20FFF7C3FF00224FF430417B
:100B80002846FFF7D3FD7D20FFF7BAFF0134E8E7E1
:100B900041F27070FFF7B4FF002413E01A4D0122F8
:100BA0004FF430412846FFF7C1FD3E20FFF7A8FF74
:100BB00000224FF430412846FFF7B8FD3E20FFF7F2
:100BC0009FFF0134312CE9DD01211048FFF79AFD28
:100BD00078B140F6C410FFF793FF01224FF4804133
:100BE0000948FFF7A3FD41F64C50FFF789FF0024A9
:100BF000B0E740F24C40FFF783FF00224FF4704112
:100C00000148FFF793FDDFE7000C024000000240BF
:100C1000014B1868704700BF10000020034613F80E
:100C2000012B002AFBD1181A0138704730B5144641
:100C3000002C9BB005461A4605DA8B2303604FF063
:100C4000FF301BB030BD4FF40273ADF80C3014BF51
:100C500004F1FF332346029305934FF6FF7300918F
:100C60000491ADF80E3069461E9B00F075F8431CE8
:100C7000BCBF8B232B60002CE3D0009B00221A709A
:100C8000DFE7000007B5009313460A460146034814
:100C90000068FFF7CBFF03B05DF804FB10000020F5
:100CA0002DE9F0478E689E4282460C4690461F46CC
:100CB00038D88A8912F4906F32D025680969A5EB7B
:100CC0000109656905EB450505EBD57501334B4415
:100CD0006D109D4238BF1D46530531D5294600F0A1
:100CE000B1FB064650B90C23CAF80030A38943F083
:100CF0004003A3814FF0FF30BDE8F08721694A46E9
:100D000000F00EFBA38923F4906343F08003A381DA
:100D1000266165614E44A5EB09052660A5603E4647
:100D2000BE4200D93E4620683246414600F006FBEE
:100D3000A3689B1BA3602368334423600020DBE788
:100D40002A4600F0F3FB06460028E1D1216950460F
:100D500000F00EFBC7E700002DE9F04F98468B89A5
:100D60001B069DB007460D4614460ED50B6963B9A8
:100D7000402100F067FB2860286120B90C233B600C
:100D80004FF0FF30D1E040236B6100230993202313
:100D90008DF82930CDF80C803023DFF8A8818DF84C
:100DA0002A304FF0010923469A4613F8012B0AB165
:100DB000252AF9D1BAEB040B0BD05B462246294613
:100DC0003846FFF76DFF013000F0AA80099A5A44B7
:100DD00009929AF80030002B00F0A28000234FF017
:100DE000FF32CDE905230AF1010A049307938DF838
:100DF00053301A935446052214F8011B514800F051
:100E00003FFA049AD8B9D00644BF20238DF8533056
:100E1000110744BF2B238DF853309AF800302A2B4A
:100E200015D0079A544600204FF00A0C214611F8BD
:100E3000013B303B092B4ED9B0B1079214E0A0EB37
:100E4000080309FA03F313430493A246D2E7039B72
:100E5000191D1B680391002BBBBF5B4242F00202CD
:100E600007930793B8BF049223782E2B0CD1637895
:100E70002A2B35D1039B1A1D1B680392002BB8BF88
:100E80004FF0FF3302340593DFF8BCA02178032232
:100E9000504600F0F5F940B14023A0EB0A0003FAF8
:100EA00000F0049B03430134049314F8011B27480A
:100EB0008DF82810062200F0E3F9002838D0244BE2
:100EC0001BBB039B073323F0070308330393099BE2
:100ED0003344099367E70CFB02320C460120A5E777
:100EE00000230134059319464FF00A0C204610F8F0
:100EF000012B303A092A03D9002BC5D00591C3E74D
:100F00000CFB012104460123F0E703AB00932A46C2
:100F1000104B04A93846AFF30080421C0646D6D1D8
:100F2000AB895B063FF52CAF09981DB0BDE8F08F8B
:100F300003AB00932A46074B04A9384600F07AF821
:100F4000EBE700BFA0170008A6170008AA170008C3
:100F500000000000A10C00082DE9F0471646994654
:100F60008A680B69DDF820809342B8BF134633606E
:100F700091F8432007460C460AB1013333602368D9
:100F8000990642BF336802333360256815F00605C1
:100F900006D104F1190AE36832689B1AAB4226DCD9
:100FA00094F84320131E226818BF012392062BD405
:100FB00004F1430249463846C04701301ED0236839
:100FC000E568326803F00603042B08BFAD1AA36876
:100FD00022690CBF25EAE57500259342C4BF9B1A20
:100FE000ED1800261A34B5421AD1002008E001237A
:100FF000524649463846C047013003D14FF0FF30D2
:10100000BDE8F0870135C6E7E1185A1C302081F8A9
:101010004300224494F8451082F843100233C7E796
:101020000123224649463846C0470130E6D0013602
:10103000D9E700002DE9FF470F7E0C9D782F9146E0
:1010400080460C469A4601F1430207D8622F0AD81F
:10105000002F00F0D880582F00F0A38004F1420543
:1010600084F842703AE0A7F16303152BF6D801A18A
:1010700051F823F0CD100008E11000085D100008C1
:101080005D1000085D1000085D100008E110000808
:101090005D1000085D1000085D1000085D1000087C
:1010A000ED11000811110008CF1100085D100008B3
:1010B0005D1000080F1200085D10000811110008F3
:1010C0005D1000085D100008D71100082B681A1D7C
:1010D0001B682A6004F1420584F842300123A3E032
:1010E00020682968060601F104030AD50E682B6002
:1010F000002E03DA2D23764284F843305E480A231B
:1011000019E00E682B6010F0400F18BF36B2EFE701
:101110002B682068191D2960010601D51E6802E0B0
:101120004606FBD51E8854486F2F0CBF08230A23A0
:10113000002184F843106568A560002DA2BF2168D6
:1011400021F0040121600EB9002D4DD01546B6FBEB
:10115000F3F103FB1167C75D05F8017D3746BB421C
:101160000E46F4D9082B0BD12368DE0708D5236976
:1011700061689942DEBF302305F8013C05F1FF3577
:10118000521B2261CDF800A04B4603AA21464046DF
:10119000FFF7E2FE01304CD14FF0FF3004B0BDE864
:1011A000F087354881F845702968236851F8046B49
:1011B00029601D0614D5DF0744BF43F020032360D8
:1011C0001EB9236823F0200323601023B0E72368AF
:1011D00043F0200323607823284884F84530E3E770
:1011E000590648BFB6B2E6E71546BBE72B68266846
:1011F0006169181D286035061B6801D5196002E079
:101200007006FBD51980002323611546BAE72B68C9
:101210001A1D2A601D6862680021284600F030F817
:1012200008B1401B606063682361002384F8433089
:10123000A8E723692A4649464046D0470130ABD04B
:1012400023689B0713D4E068039B9842B8BF1846F5
:10125000A4E70123324649464046D04701309BD09F
:101260000135E36803995B1AAB42F2DCEBE700253A
:1012700004F11906F5E700BFB1170008C21700080E
:1012800001F0FF01102A2BDB10F0070F08D010F837
:10129000013B013A8B422DD010F0070F42B3F6D13B
:1012A000F0B441EA012141EA014122F007047FF054
:1012B00000070023F0E80256083C85EA010586EAAB
:1012C000010685FA47F5A3FA87F586FA47F6A5FAE7
:1012D00087F68EB9EED1F0BC01F0FF0102F00702F3
:1012E00032B110F8013B013A83EA010313B1F8D19E
:1012F0000020704701387047002D06BF354603387F
:10130000073815F0010F07D1013015F4807F02BFB7
:10131000013015F4C03F0130F0BC0138704700BF08
:101320000A44914200F1FF3300D1704710B511F823
:10133000014B03F8014F9142F9D110BD884210B51D
:1013400001EB020402D98442234607D8431EA1427E
:1013500008D011F8012B03F8012FF8E702440146E9
:101360008A4200D110BD13F8014D02F8014DF7E794
:1013700038B50546002941D051F8043C0C1F002B1C
:10138000B8BFE41800F012F91D4A136833B963605E
:1013900014602846BDE8384000F00EB9A34208D9D1
:1013A000206821188B4201BF19685B680918216009
:1013B000EDE71A465B680BB1A342FAD911685018E1
:1013C000A0420BD120680144501883421160E0D143
:1013D00018685B68536001441160DAE702D90C2396
:1013E0002B60D6E7206821188B4204BF19685B6820
:1013F000636004BF091821605460CAE738BD00BFAC
:101400000801002070B50E4E0C463168054611B932
:1014100000F0BCF830602146284600F0B7F8431CC5
:101420000AD0C41C24F00304A04207D0211A284685
:1014300000F0ACF8013001D14FF0FF34204670BD10
:101440000C0100202DE9F041CD1C25F003050835E5
:101450000C2D38BF0C25002D074601DBA94205D90C
:101460000C233B6000263046BDE8F0812E4E00F094
:101470009DF833681C4634BB29463846FFF7C2FF47
:10148000431C04464DD134682646002E40D12368C3
:101490003146384604EB030800F078F880453AD12D
:1014A000216803356D1A25F0030508350C2D38BF6A
:1014B0000C2529463846FFF7A5FF01302BD02368BD
:1014C0002B4423600EE02268521B1ED40B2A16D92F
:1014D0006119A342256018BF5960636808BF316075
:1014E00062514B60384604F10B0600F065F826F0B7
:1014F0000706231DF21AB6D09B1BA350B3E7626800
:10150000A3420CBF32605A60ECE723466468B2E73E
:1015100034467668B9E70C233B60384600F04CF857
:10152000A1E72560DEE700BF080100202DE9F041BA
:10153000804614460E4621B9BDE8F0411146FFF73A
:1015400081BF2AB9FFF714FF25462846BDE8F08180
:1015500000F038F88442074602D8B4EB500F12D896
:1015600021464046FFF76EFF05460028EDD0BC42FD
:101570002246314628BF3A46FFF7D2FE3146404662
:10158000FFF7F6FEE1E73546DFE7000038B5064D28
:101590000023044608462B60FFF7FAF8431C02D1EB
:1015A0002B6803B1236038BD80000020014800F0A3
:1015B00011B800BF10010020014800F00CB800BFB6
:1015C0001001002051F8043C181F002BBCBF0B5821
:1015D000C0187047704770472E2E2F73797374654B
:1015E0006D2F7372632F73746D333266342D68619F
:1015F0006C2F73746D3332663478785F68616C5F1A
:101600006770696F2E6300006173736572745F7039
:101610006172616D2829206661696C65643A206693
:10162000696C6520222573222C206C696E6520254B
:10163000640A000061626F727428292C2065786941
:1016400074696E672E2E2E00537461636B20667270
:10165000616D653A0A000000205230203D202025AF
:101660003038580A00000000205231203D2020254B
:101670003038580A00000000205232203D2020253A
:101680003038580A00000000205233203D20202529
:101690003038580A0000000020523132203D202509
:1016A0003038580A00000000204C52203D202025F0
:1016B0003038580A00000000205043203D202025EB
:1016C0003038580A0000000020505352203D202599
:1016D0003038580A000000004653522F4641523A13
:1016E0000A0000002043465352203D202025303878
:1016F000580A00002048465352203D20202530380B
:10170000580A00002044465352203D2020253038FE
:10171000580A00002041465352203D2020253038F1
:10172000580A0000204D4D464152203D20253038BA
:10173000580A00002042464152203D2020253038E2
:10174000580A00004D6973630A000000204C522FB4
:101750004558435F52455455524E3D202530385828
:101760000A0000005B486172644661756C745D0A32
:10177000000000005B4275734661756C745D0A0081
:101780005B55736167654661756C745D0A000000A6
:101790000000000000000000010203040607080921
:1017A000232D302B2000686C4C006566674546474A
:1017B00000303132333435363738394142434445CD
:1017C000460030313233343536373839616263643C
:0317D0006566004B
:1017D4007856341284000020000000000024F40035
:1017E40014000020000000000000000000000000C1
:1017F40000000000000000000000000000000000E5
:1018040000000000000000000000000000000000D4
:1018140000000000000000000000000000000000C4
:1018240000000000000000000000000000000000B4
:1018340000000000000000000000000000000000A4
:08184400000000003254769808
:040000050800018965
:00000001FF
